:020000040800F2
:100000000050002021020008270200082B020008EF
:1000100043020008470200085F02000800000000D9
:10002000000000000000000000000000770200084F
:100030007B020008000000007F020008050900089C
:100040009102000891020008910200089102000844
:100050009102000891020008910200089102000834
:100060009102000891020008910200089102000824
:100070009102000891020008910200089102000814
:100080009102000891020008910200089102000804
:1000900091020008910200089102000891020008F4
:1000A00091020008910200089102000891020008E4
:1000B00091020008910200089102000891020008D4
:1000C00091020008910200089102000891020008C4
:1000D00091020008910200089102000891020008B4
:1000E000910200089102000891020008000000003F
:1000F0000000000000000000000000000000000000
:1001000000000000000000005FF808F100B583B0B7
:1001100000F0DEF8304B314A1360314A1360314B46
:10012000314A32498B4204D21168196004330432D7
:10013000F7E72A4B1A682E4B9A4200D0FEE7284B6D
:100140001A682C4B9A42F9D1234B2B4A13602B4A45
:1001500013602B4B02E000221A600433294A9342B9
:10016000F9D3254B1B6813B9244B1B6803B1FEE779
:1001700000F0BAF8694601A800F0A2F8224C234B1F
:10018000E41AA4100025AC4214DC214C214BE41AE3
:10019000A4100025AC4213DC0099019800F0F6FB96
:1001A00005461D4C1D4BE41AA410002C0EDC2846FD
:1001B00000F084F8154B53F8253098470135E2E7F5
:1001C000144B53F8253098470135E3E7013C134BB6
:1001D00053F824309847E8E7BABADECA0000002096
:1001E00020000020000000205C0A000824000020FD
:1001F00078563412325476982400002038000020BB
:10020000240000203C000020BC020008BC020008C2
:10021000BC020008BC020008BC020008BC020008C6
:1002200008B5FFF773FF00BEFEE71EF0040F0CBF1A
:10023000EFF30880EFF309807146124A104700BEC1
:10024000FEE700BEFEE71EF0040F0CBFEFF30880D0
:10025000EFF3098071460C4A104700BEFEE71EF01E
:10026000040F0CBFEFF30880EFF309807146074AD3
:10027000104700BEFEE700BEFEE700BEFEE700BE80
:10028000FEE770473F0200085B02000873020008A7
:0402900000BEFEE7C7
:100294005C0A000800000020240000205C0A00081A
:1002A4000000000000000000240000203C000020AA
:0802B400000000000000000042
:1002BC00FEE7000001230360014B0B60704700BF99
:1002CC000400002008B500F073F8024A024B9A6053
:1002DC0008BD00BF0000000800ED00E008B500F00C
:1002EC008FF808BD82B00023019300932C4A136849
:1002FC0043F4803313602A4B1B6803F400330093E0
:10030C00019B01330193009B1BB9019BB3F5A06FBB
:10031C00F1D1234B1B6813F4003F06D0012300934B
:10032C00009B012B04D002B0704700230093F7E729
:10033C001C4B1A6842F010021A601A6822F0030271
:10034C001A601A6842F002021A60A3F580535A68C8
:10035C005A605A685A605A6842F480625A605A6805
:10036C0022F47C125A605A6842F4E8125A601A68F5
:10037C0042F080721A600A4B1B6813F0007FFAD0AF
:10038C00074B5A6822F003025A605A6842F0020284
:10039C005A60034B5B6803F00C03082BF9D1C2E7DE
:1003AC00001002400020024008B5FFF79BFF08BD7B
:1003BC0008B5104B1A6842F001021A6059680E4ACF
:1003CC000A405A601A6822F0847222F480321A6051
:1003DC001A6822F480221A605A6822F4FE025A60CB
:1003EC004FF41F029A60FFF7DFFF044B4FF00062DF
:1003FC009A6008BD001002400000FFF800ED00E01C
:10040C001F4B5B6803F00C03042B15D0082B17D083
:10041C001BB11C4B1C4A1A6002E01A4B1A4A1A6098
:10042C00174B5B68C3F30313184AD35CDAB2154954
:10043C000B68D3400B607047124B134A1A60EFE7FE
:10044C000F4A53685268C3F38343023312F4803F5C
:10045C000AD00B4A526812F4003F0BD00C4A02FB34
:10046C0003F3084A1360DBE7094A02FB03F3054A6E
:10047C001360D5E7044A02FB03F3024A1360CFE78B
:10048C00001002401C00002000127A000C0000201A
:10049C0000093D0010B4012827D018B1022847D01C
:1004AC0010BC7047072912D90F29F9D8A1F10804FB
:1004BC00E4B2314B1968A4000F20A04021EA0001DE
:1004CC001960186802FA04F101431960E8E72B4B34
:1004DC00186889000F248C4020EA04001860186802
:1004EC0002FA01F101431960DAE7072912D90F2941
:1004FC00D6D8A1F10800C0B2214B196880000F2496
:10050C00844021EA040119601C6802FA00F12143BD
:10051C001960C5E71B4B186889000F248C4020EA32
:10052C0004001860186802FA01F101431960B7E77A
:10053C00072912D90F29B3D8A1F10803DBB212484D
:10054C0001689B000F249C4021EA040101600468AF
:10055C0002FA03F121430160A2E70C4B18688900F1
:10056C000F248C4020EA04001860186802FA01F18C
:10057C000143196094E700BF0408014000080140E2
:10058C00040C0140000C014004100140001001401B
:10059C00012817D010B1022827D07047012A0AD0A1
:1005AC00002A2DD11A480368012202FA01F123EA2C
:1005BC000101016070471648036802FA01F1194302
:1005CC0001607047012A09D0D2B912480368012290
:1005DC0002FA01F123EA0101016070470D4803683A
:1005EC0002FA01F1194301607047012A09D03AB9A6
:1005FC0009480368012202FA01F123EA01010160B2
:10060C0070470548036802FA01F11943016070470D
:10061C000C0801400C0C01400C10014008B50122E3
:10062C0000211046FFF7B4FF012211461046FFF7D8
:10063C00AFFF012205211046FFF7AAFF0122062178
:10064C001046FFF7A5FF012207211046FFF7A0FF78
:10065C00012208211046FFF79BFF012209211046B9
:10066C00FFF796FF01220A211046FFF791FF08BD04
:10067C0010B5044600F0010200210846FFF788FF80
:10068C00C4F3400201210020FFF782FFC4F3800273
:10069C0002210020FFF77CFFC4F3C00203210020DD
:1006AC00FFF776FFC4F3001204210020FFF770FF60
:1006BC00C4F3401205210020FFF76AFFC4F3801237
:1006CC0006210020FFF764FFE20907210020FFF755
:1006DC005FFF10BD08B5022200210846FFF7DAFEC5
:1006EC00022201210020FFF7D5FE02221146002034
:1006FC00FFF7D0FE022203210020FFF7CBFE0222DF
:10070C0004210020FFF7C6FE022205210020FFF77E
:10071C00C1FE022206210020FFF7BCFE02220721A7
:10072C000020FFF7B7FE022200210120FFF7B2FEE6
:10073C00022201210846FFF7ADFE0222052101200D
:10074C00FFF7A8FE022206210120FFF7A3FE0222DA
:10075C0007210120FFF79EFE022208210120FFF74E
:10076C0099FE022209210120FFF794FE02220A21A0
:10077C000120FFF78FFE08BD38B504460A2571E04D
:10078C00FFF74CFF2078FFF773FF00221146012082
:10079C00FFF7FEFE40F6C41000F098F8FFF73EFF9E
:1007AC006078FFF765FF002201210846FFF7F0FE95
:1007BC0040F6C41000F08AF8FFF730FFA078FFF77E
:1007CC0057FF002205210120FFF7E2FE40F6C4107E
:1007DC0000F07CF8FFF722FFE078FFF749FF0022DA
:1007EC0006210120FFF7D4FE40F6C41000F06EF88D
:1007FC00FFF714FF2079FFF73BFF002207210120B0
:10080C00FFF7C6FE40F6C41000F060F8FFF706FFD5
:10081C006079FFF72DFF002208210120FFF7B8FEB9
:10082C0040F6C41000F052F8FFF7F8FEA079FFF77D
:10083C001FFF002209210120FFF7AAFE40F6C41079
:10084C0000F044F8FFF7EAFEE079FFF711FF002211
:10085C000A210120FFF79CFE40F6C41000F036F888
:10086C00013DEDB2002D8BD138BD0000034B4FF490
:10087C0080321A60043301221A6070470010024063
:10088C001F291CD801280BD010B1022810D070479A
:10089C000B480368012202FA01F119430160704709
:1008AC0008480368012202FA01F1194301607047FC
:1008BC0005480368012202FA01F1194301607047EF
:1008CC00141002401C10024018100240084B186013
:1008DC00084A136843F001031360064B1B6813F4BA
:1008EC00803FFAD0034A136823F00103136070476A
:1008FC0014E000E010E000E008B5094B1B68094B60
:10090C001B7823B9084B1B684BB1984707E0064B83
:10091C001B6803B19847054B1A68054B1A6008BD54
:10092C0010E000E0340000202C00002030000020FB
:10093C0014E000E070B49DF80C50AB420BD30024D3
:10094C0011E0C45C54540133DBB20131C9B2AB4287
:10095C00F7D370BC70470021F9E7C65C165501341B
:10096C00E4B20133DBB28B42F7D3002305E0C15C68
:10097C0011550134E4B20133DBB2AB42F7D9E8E7ED
:10098C0010B596B04222194905A800F033F8FFF7CC
:10099C006DFF02210846FFF773FF03210220FFF7CA
:1009AC006FFFFFF797FE1EE000230393049304F1FF
:1009BC0008020F4981FB0231D317C3EB610303EB30
:1009CC00431103EB4103D31ADBB20093234603AA72
:1009DC00422105A8FFF7AEFF03A8FFF7CDFE0134B7
:1009EC00E4B2412CE0D90024FBE700BF180A000850
:1009FC006B4CA40710B5431E0A44914200D110BDA4
:100A0C0011F8014B03F8014FF7E70000007C1212BC
:100A1C007C00007E50507000007E42241800007C48
:100A2C0012127C00007E40400000007E404000001E
:100A3C00007C12127C00004E52526200007E182480
:0E0A4C004200007C12127C00007E1A2A4E002E
:100A5C00785634122800002000000000000000002E
:100A6C0000000000010203040607080900A24A0462
:040A7C0032547698E2
:040000050800010DE1
:00000001FF
