:020000040800F2
:100000000050002021020008270200082B020008EF
:1000100043020008470200085F02000800000000D9
:10002000000000000000000000000000770200084F
:100030007B020008000000007F020008550800084D
:100040009102000891020008910200089102000844
:100050009102000891020008910200089102000834
:100060009102000891020008910200089102000824
:100070009102000891020008910200089102000814
:100080009102000891020008910200089102000804
:1000900091020008910200089102000891020008F4
:1000A00091020008910200089102000891020008E4
:1000B00091020008910200089102000891020008D4
:1000C00091020008910200089102000891020008C4
:1000D00091020008910200089102000891020008B4
:1000E000910200089102000891020008000000003F
:1000F0000000000000000000000000000000000000
:1001000000000000000000005FF808F100B583B0B7
:1001100000F0DEF8304B314A1360314A1360314B46
:10012000314A32498B4204D21168196004330432D7
:10013000F7E72A4B1A682E4B9A4200D0FEE7284B6D
:100140001A682C4B9A42F9D1234B2B4A13602B4A45
:1001500013602B4B02E000221A600433294A9342B9
:10016000F9D3254B1B6813B9244B1B6803B1FEE779
:1001700000F0BAF8694601A800F0A2F8224C234B1F
:10018000E41AA4100025AC4214DC214C214BE41AE3
:10019000A4100025AC4213DC0099019800F090FBFC
:1001A00005461D4C1D4BE41AA410002C0EDC2846FD
:1001B00000F084F8154B53F8253098470135E2E7F5
:1001C000144B53F8253098470135E3E7013C134BB6
:1001D00053F824309847E8E7BABADECA0000002096
:1001E00020000020000000207809000824000020E2
:1001F000785634123254769824000020680000208B
:10020000240000206C000020BC020008BC02000892
:10021000BC020008BC020008BC020008BC020008C6
:1002200008B5FFF773FF00BEFEE71EF0040F0CBF1A
:10023000EFF30880EFF309807146124A104700BEC1
:10024000FEE700BEFEE71EF0040F0CBFEFF30880D0
:10025000EFF3098071460C4A104700BEFEE71EF01E
:10026000040F0CBFEFF30880EFF309807146074AD3
:10027000104700BEFEE700BEFEE700BEFEE700BE80
:10028000FEE770473F0200085B02000873020008A7
:0402900000BEFEE7C7
:1002940078090008000000202400002078090008E4
:1002A4000000000000000000240000206C0000207A
:0802B400000000000000000042
:1002BC00FEE7000001230360014B0B60704700BF99
:1002CC000400002008B500F073F8024A024B9A6053
:1002DC0008BD00BF0000000800ED00E008B500F00C
:1002EC008FF808BD82B00023019300932C4A136849
:1002FC0043F4803313602A4B1B6803F400330093E0
:10030C00019B01330193009B1BB9019BB3F5A06FBB
:10031C00F1D1234B1B6813F4003F06D0012300934B
:10032C00009B012B04D002B0704700230093F7E729
:10033C001C4B1A6842F010021A601A6822F0030271
:10034C001A601A6842F002021A60A3F580535A68C8
:10035C005A605A685A605A6842F480625A605A6805
:10036C0022F47C125A605A6842F4E8125A601A68F5
:10037C0042F080721A600A4B1B6813F0007FFAD0AF
:10038C00074B5A6822F003025A605A6842F0020284
:10039C005A60034B5B6803F00C03082BF9D1C2E7DE
:1003AC00001002400020024008B5FFF79BFF08BD7B
:1003BC0008B5104B1A6842F001021A6059680E4ACF
:1003CC000A405A601A6822F0847222F480321A6051
:1003DC001A6822F480221A605A6822F4FE025A60CB
:1003EC004FF41F029A60FFF7DFFF044B4FF00062DF
:1003FC009A6008BD001002400000FFF800ED00E01C
:10040C001F4B5B6803F00C03042B15D0082B17D083
:10041C001BB11C4B1C4A1A6002E01A4B1A4A1A6098
:10042C00174B5B68C3F30313184AD35CDAB2154954
:10043C000B68D3400B607047124B134A1A60EFE7FE
:10044C000F4A53685268C3F38343023312F4803F5C
:10045C000AD00B4A526812F4003F0BD00C4A02FB34
:10046C0003F3084A1360DBE7094A02FB03F3054A6E
:10047C001360D5E7044A02FB03F3024A1360CFE78B
:10048C00001002401C00002000127A000C0000201A
:10049C0000093D0010B4012827D018B1022847D01C
:1004AC0010BC7047072912D90F29F9D8A1F10804FB
:1004BC00E4B2314B1968A4000F20A04021EA0001DE
:1004CC001960186802FA04F101431960E8E72B4B34
:1004DC00186889000F248C4020EA04001860186802
:1004EC0002FA01F101431960DAE7072912D90F2941
:1004FC00D6D8A1F10800C0B2214B196880000F2496
:10050C00844021EA040119601C6802FA00F12143BD
:10051C001960C5E71B4B186889000F248C4020EA32
:10052C0004001860186802FA01F101431960B7E77A
:10053C00072912D90F29B3D8A1F10803DBB212484D
:10054C0001689B000F249C4021EA040101600468AF
:10055C0002FA03F121430160A2E70C4B18688900F1
:10056C000F248C4020EA04001860186802FA01F18C
:10057C000143196094E700BF0408014000080140E2
:10058C00040C0140000C014004100140001001401B
:10059C00012817D010B1022827D07047012A0AD0A1
:1005AC00002A2DD11A480368012202FA01F123EA2C
:1005BC000101016070471648036802FA01F1194302
:1005CC0001607047012A09D0D2B912480368012290
:1005DC0002FA01F123EA0101016070470D4803683A
:1005EC0002FA01F1194301607047012A09D03AB9A6
:1005FC0009480368012202FA01F123EA01010160B2
:10060C0070470548036802FA01F11943016070470D
:10061C000C0801400C0C01400C100140012811D0B9
:10062C0040B1022816D00023012836D000B302288E
:10063C0047D070470F2915D82C4B1B68CB4003F0C3
:10064C000103F1E70F290FD8294B1B68CB4003F0AE
:10065C000103E9E70F2909D8264B1B68CB4003F0AF
:10066C000103E1E70346DFE70023DDE70023DBE7D7
:10067C0013B1012B08D070471F480368012202FAFE
:10068C0001F11943016070471B480368012202FA0B
:10069C0001F123EA01010160704753B1012BEAD14A
:1006AC0016480368012202FA01F123EA01010160F4
:1006BC00704712480368012202FA01F119430160E4
:1006CC00704753B1012BD6D10D480368012202FAB1
:1006DC0001F123EA01010160CDE709480368012219
:1006EC0002FA01F119430160704700BF080801408C
:1006FC00080C0140081001400C0801400C0C014092
:10070C000C10014038B5002408E004EB4405A900A6
:10071C00144A0A44013B13810134A4B2032C1FD8A0
:10072C0004EB44039A000F4B13445A68002AF3D08D
:10073C0004EB440399000B4B0B449B7A002BEBD13D
:10074C00084B0B441B89002BDFD19047054A6300F3
:10075C00181981000846515A013902441181DBE70E
:10076C0038BD00BF2C000020F0B4064C45002F18FB
:10077C00BE00A719A1537B603A819DF81030BB7263
:10078C00F0BC70472C00002008B500F039F8034984
:10079C004FF47A7000F03CF808BD00BF1107000858
:1007AC00034B4FF480321A60043301221A607047F5
:1007BC00001002401F291CD801280BD010B10228B0
:1007CC0010D070470B480368012202FA01F119435B
:1007DC000160704708480368012202FA01F11943CD
:1007EC000160704705480368012202FA01F11943C0
:1007FC0001607047141002401C1002401810024097
:10080C00024A136823F004031360704710E000E001
:10081C00094B01221A70094B1860094B1A6842F0F7
:10082C0001021A601A6842F002021A60043318605E
:10083C00044B1960704700BF64000020600000206A
:10084C0010E000E05C00002008B5094B1B68094B68
:10085C001B7823B9084B1B684BB1984707E0064B34
:10086C001B6803B19847054B1A68054B1A6008BD05
:10087C0010E000E0640000205C000020600000201C
:10088C0014E000E008B500210846FFF7C7FE08BDDC
:10089C0008B501210020FFF7C1FE08BD08B50221F3
:1008AC000020FFF7BBFE08BD08B503210020FFF7B1
:1008BC00B5FE08BD00B583B0FFF772FF02210846F4
:1008CC00FFF778FF022200210846FFF7E3FD022222
:1008DC0001210020FFF7DEFD022211460020FFF768
:1008EC00D9FD022203210020FFF7D4FD002211467E
:1008FC001046FFF74DFE002201211046FFF748FE7F
:10090C00002202211046FFF743FE0022032110466D
:10091C00FFF73EFE00240094104B22464FF4FA7170
:10092C002046FFF721FF00940D4B14224FF49661E3
:10093C000120FFF719FF00940A4B0A224FF4FA61C9
:10094C000220FFF711FF0094074B1E2241F23011D9
:10095C000320FFF709FFFFF717FFFEE791080008D8
:0C096C009D080008A9080008B508000854
:100978007856341228000020000000000000000013
:1009880000000000010203040607080900A24A0447
:0409980032547698C7
:040000050800010DE1
:00000001FF
