:020000040800F2
:100000000050002021020008270200082B020008EF
:1000100043020008470200085F02000800000000D9
:10002000000000000000000000000000770200084F
:100030007B020008000000007F0200088302000825
:100040009102000891020008910200089102000844
:100050009102000891020008910200089102000834
:100060009102000891020008910200089102000824
:100070009102000891020008910200089102000814
:100080009102000891020008910200089102000804
:1000900091020008910200089102000891020008F4
:1000A00091020008910200089102000891020008E4
:1000B00091020008910200089102000891020008D4
:1000C00091020008910200089102000891020008C4
:1000D00091020008910200089102000891020008B4
:1000E000910200089102000891020008000000003F
:1000F0000000000000000000000000000000000000
:1001000000000000000000005FF808F100B583B0B7
:1001100000F0DEF8304B314A1360314A1360314B46
:10012000314A32498B4204D21168196004330432D7
:10013000F7E72A4B1A682E4B9A4200D0FEE7284B6D
:100140001A682C4B9A42F9D1234B2B4A13602B4A45
:1001500013602B4B02E000221A600433294A9342B9
:10016000F9D3254B1B6813B9244B1B6803B1FEE779
:1001700000F0BAF8694601A800F0A2F8224C234B1F
:10018000E41AA4100025AC4214DC214C214BE41AE3
:10019000A4100025AC4213DC0099019800F096FAF7
:1001A00005461D4C1D4BE41AA410002C0EDC2846FD
:1001B00000F084F8154B53F8253098470135E2E7F5
:1001C000144B53F8253098470135E3E7013C134BB6
:1001D00053F824309847E8E7BABADECA0000002096
:1001E0002000002000000020580700082400002004
:1001F0007856341232547698240000202C000020C7
:100200002400002030000020BC020008BC020008CE
:10021000BC020008BC020008BC020008BC020008C6
:1002200008B5FFF773FF00BEFEE71EF0040F0CBF1A
:10023000EFF30880EFF309807146124A104700BEC1
:10024000FEE700BEFEE71EF0040F0CBFEFF30880D0
:10025000EFF3098071460C4A104700BEFEE71EF01E
:10026000040F0CBFEFF30880EFF309807146074AD3
:10027000104700BEFEE700BEFEE700BEFEE700BE80
:10028000FEE770473F0200085B02000873020008A7
:0402900000BEFEE7C7
:100294005807000800000020240000205807000828
:1002A40000000000000000002400002030000020B6
:0802B400000000000000000042
:1002BC00FEE7000001230360014B0B60704700BF99
:1002CC000400002008B500F073F8024A024B9A6053
:1002DC0008BD00BF0000000800ED00E008B500F00C
:1002EC008FF808BD82B00023019300932C4A136849
:1002FC0043F4803313602A4B1B6803F400330093E0
:10030C00019B01330193009B1BB9019BB3F5A06FBB
:10031C00F1D1234B1B6813F4003F06D0012300934B
:10032C00009B012B04D002B0704700230093F7E729
:10033C001C4B1A6842F010021A601A6822F0030271
:10034C001A601A6842F002021A60A3F580535A68C8
:10035C005A605A685A605A6842F480625A605A6805
:10036C0022F47C125A605A6842F4E8125A601A68F5
:10037C0042F080721A600A4B1B6813F0007FFAD0AF
:10038C00074B5A6822F003025A605A6842F0020284
:10039C005A60034B5B6803F00C03082BF9D1C2E7DE
:1003AC00001002400020024008B5FFF79BFF08BD7B
:1003BC0008B5104B1A6842F001021A6059680E4ACF
:1003CC000A405A601A6822F0847222F480321A6051
:1003DC001A6822F480221A605A6822F4FE025A60CB
:1003EC004FF41F029A60FFF7DFFF044B4FF00062DF
:1003FC009A6008BD001002400000FFF800ED00E01C
:10040C001F4B5B6803F00C03042B15D0082B17D083
:10041C001BB11C4B1C4A1A6002E01A4B1A4A1A6098
:10042C00174B5B68C3F30313184AD35CDAB2154954
:10043C000B68D3400B607047124B134A1A60EFE7FE
:10044C000F4A53685268C3F38343023312F4803F5C
:10045C000AD00B4A526812F4003F0BD00C4A02FB34
:10046C0003F3084A1360DBE7094A02FB03F3054A6E
:10047C001360D5E7044A02FB03F3024A1360CFE78B
:10048C00001002401C00002000127A000C0000201A
:10049C0000093D0010B4012827D018B1022847D01C
:1004AC0010BC7047072912D90F29F9D8A1F10804FB
:1004BC00E4B2314B1968A4000F20A04021EA0001DE
:1004CC001960186802FA04F101431960E8E72B4B34
:1004DC00186889000F248C4020EA04001860186802
:1004EC0002FA01F101431960DAE7072912D90F2941
:1004FC00D6D8A1F10800C0B2214B196880000F2496
:10050C00844021EA040119601C6802FA00F12143BD
:10051C001960C5E71B4B186889000F248C4020EA32
:10052C0004001860186802FA01F101431960B7E77A
:10053C00072912D90F29B3D8A1F10803DBB212484D
:10054C0001689B000F249C4021EA040101600468AF
:10055C0002FA03F121430160A2E70C4B18688900F1
:10056C000F248C4020EA04001860186802FA01F18C
:10057C000143196094E700BF0408014000080140E2
:10058C00040C0140000C014004100140001001401B
:10059C0001280BD010B1022810D070470B4B1A68F1
:1005AC0000221A601A68114319607047084B1A68C8
:1005BC0000221A601A68114319607047054B1A68BB
:1005CC0000221A601A681143196070470C08014028
:1005DC000C0C01400C100140034B4FF480321A609C
:1005EC00043301221A607047001002401F291CD8E6
:1005FC0001280BD010B1022810D070470B480368AB
:10060C00012202FA01F1194301607047084803689E
:10061C00012202FA01F11943016070470548036891
:10062C00012202FA01F119430160704714100240D3
:10063C001C1002401810024008B501220021084687
:10064C00FFF728FF012211460020FFF723FF0122AC
:10065C0002210020FFF71EFF012203210020FFF7DB
:10066C0019FF012204210020FFF714FF01220521AC
:10067C000020FFF70FFF012206210020FFF70AFFE1
:10068C00012207210020FFF705FF08BD08B5034B29
:10069C0033F810100020FFF77BFF08BD440700085B
:1006AC00002207E000BF01339BB2B3F57A7FF9D388
:1006BC00013292B2B2F57A7F01D20023F5E770478E
:1006CC0008B5FFF789FF02210846FFF78FFFFFF7F8
:1006DC00B3FF0020FFF7DAFFFFF7E2FF0120FFF77F
:1006EC00D5FFFFF7DDFF0220FFF7D0FFFFF7D8FFA4
:1006FC000320FFF7CBFFFFF7D3FF0420FFF7C6FF64
:10070C00FFF7CEFF0520FFF7C1FFFFF7C9FF06205B
:10071C00FFF7BCFFFFF7C4FF0720FFF7B7FFFFF79A
:10072C00BFFF0820FFF7B2FFFFF7BAFF0920FFF762
:10073C00ADFFFFF7B5FFCCE73F0006005B004F00B5
:0C074C0066006D007D0007007F00670064
:100758007856341228000020000000000000000035
:1007680000000000010203040607080900A24A0469
:0407780032547698E9
:040000050800010DE1
:00000001FF
