:020000040800F2
:100000000050002021020008270200082B020008EF
:1000100043020008470200085F02000800000000D9
:10002000000000000000000000000000770200084F
:100030007B020008000000007F020008B1080008F1
:100040009102000891020008910200089102000844
:100050009102000891020008910200089102000834
:100060009102000891020008910200089102000824
:100070009102000891020008910200089102000814
:100080009102000891020008910200089102000804
:1000900091020008910200089102000891020008F4
:1000A00091020008910200089102000891020008E4
:1000B00091020008910200089102000891020008D4
:1000C00091020008910200089102000891020008C4
:1000D00091020008910200089102000891020008B4
:1000E000910200089102000891020008000000003F
:1000F0000000000000000000000000000000000000
:1001000000000000000000005FF808F100B583B0B7
:1001100000F0DEF8304B314A1360314A1360314B46
:10012000314A32498B4204D21168196004330432D7
:10013000F7E72A4B1A682E4B9A4200D0FEE7284B6D
:100140001A682C4B9A42F9D1234B2B4A13602B4A45
:1001500013602B4B02E000221A600433294A9342B9
:10016000F9D3254B1B6813B9244B1B6803B1FEE779
:1001700000F0BAF8694601A800F0A2F8224C234B1F
:10018000E41AA4100025AC4214DC214C214BE41AE3
:10019000A4100025AC4213DC0099019800F042FB4A
:1001A00005461D4C1D4BE41AA410002C0EDC2846FD
:1001B00000F084F8154B53F8253098470135E2E7F5
:1001C000144B53F8253098470135E3E7013C134BB6
:1001D00053F824309847E8E7BABADECA0000002096
:1001E0002800002000000020D40900082C00002076
:1001F00078563412325476982C00002034000020B7
:100200002C00002038000020BC020008BC020008BE
:10021000BC020008BC020008BC020008BC020008C6
:1002200008B5FFF773FF00BEFEE71EF0040F0CBF1A
:10023000EFF30880EFF309807146124A104700BEC1
:10024000FEE700BEFEE71EF0040F0CBFEFF30880D0
:10025000EFF3098071460C4A104700BEFEE71EF01E
:10026000040F0CBFEFF30880EFF309807146074AD3
:10027000104700BEFEE700BEFEE700BEFEE700BE80
:10028000FEE770473F0200085B02000873020008A7
:0402900000BEFEE7C7
:10029400D4090008000000202C000020D409000824
:1002A40000000000000000002C00002038000020A6
:0802B400000000000000000042
:1002BC00FEE7000001230360014B0B60704700BF99
:1002CC000400002008B500F073F8024A024B9A6053
:1002DC0008BD00BF0000000800ED00E008B500F00C
:1002EC008FF808BD82B00023019300932C4A136849
:1002FC0043F4803313602A4B1B6803F400330093E0
:10030C00019B01330193009B1BB9019BB3F5A06FBB
:10031C00F1D1234B1B6813F4003F06D0012300934B
:10032C00009B012B04D002B0704700230093F7E729
:10033C001C4B1A6842F010021A601A6822F0030271
:10034C001A601A6842F002021A60A3F580535A68C8
:10035C005A605A685A605A6842F480625A605A6805
:10036C0022F47C125A605A6842F4E8125A601A68F5
:10037C0042F080721A600A4B1B6813F0007FFAD0AF
:10038C00074B5A6822F003025A605A6842F0020284
:10039C005A60034B5B6803F00C03082BF9D1C2E7DE
:1003AC00001002400020024008B5FFF79BFF08BD7B
:1003BC0008B5104B1A6842F001021A6059680E4ACF
:1003CC000A405A601A6822F0847222F480321A6051
:1003DC001A6822F480221A605A6822F4FE025A60CB
:1003EC004FF41F029A60FFF7DFFF044B4FF00062DF
:1003FC009A6008BD001002400000FFF800ED00E01C
:10040C001F4B5B6803F00C03042B15D0082B17D083
:10041C001BB11C4B1C4A1A6002E01A4B1A4A1A6098
:10042C00174B5B68C3F30313184AD35CDAB2154954
:10043C000B68D3400B607047124B134A1A60EFE7FE
:10044C000F4A53685268C3F38343023312F4803F5C
:10045C000AD00B4A526812F4003F0BD00C4A02FB34
:10046C0003F3084A1360DBE7094A02FB03F3054A6E
:10047C001360D5E7044A02FB03F3024A1360CFE78B
:10048C00001002401C00002000127A000C0000201A
:10049C0000093D0010B4012827D018B1022847D01C
:1004AC0010BC7047072912D90F29F9D8A1F10804FB
:1004BC00E4B2314B1968A4000F20A04021EA0001DE
:1004CC001960186802FA04F101431960E8E72B4B34
:1004DC00186889000F248C4020EA04001860186802
:1004EC0002FA01F101431960DAE7072912D90F2941
:1004FC00D6D8A1F10800C0B2214B196880000F2496
:10050C00844021EA040119601C6802FA00F12143BD
:10051C001960C5E71B4B186889000F248C4020EA32
:10052C0004001860186802FA01F101431960B7E77A
:10053C00072912D90F29B3D8A1F10803DBB212484D
:10054C0001689B000F249C4021EA040101600468AF
:10055C0002FA03F121430160A2E70C4B18688900F1
:10056C000F248C4020EA04001860186802FA01F18C
:10057C000143196094E700BF0408014000080140E2
:10058C00040C0140000C014004100140001001401B
:10059C00012817D010B1022827D07047012A0AD0A1
:1005AC00002A2DD11A480368012202FA01F123EA2C
:1005BC000101016070471648036802FA01F1194302
:1005CC0001607047012A09D0D2B912480368012290
:1005DC0002FA01F123EA0101016070470D4803683A
:1005EC0002FA01F1194301607047012A09D03AB9A6
:1005FC0009480368012202FA01F123EA01010160B2
:10060C0070470548036802FA01F11943016070470D
:10061C000C0801400C0C01400C100140034B4FF432
:10062C0080321A60043301221A60704700100240B5
:10063C001F291CD801280BD010B1022810D07047EC
:10064C000B480368012202FA01F11943016070475B
:10065C0008480368012202FA01F11943016070474E
:10066C0005480368012202FA01F119430160704741
:10067C00141002401C10024018100240024A136869
:10068C0043F001031360704710E000E0024A136866
:10069C0043F002031360704710E000E010B1012832
:1006AC0006D07047054A136823F0040313607047A3
:1006BC00024A136843F004031360704710E000E033
:1006CC00014B1860704700BF14E000E0024B186843
:1006DC00C0F30040704700BF10E000E01A4B1B78DD
:1006EC00043BDBB2032B2ED810B5184B1B789BB1F7
:1006FC00174C012221780020FFF74AFF0122154BED
:10070C0019780020FFF744FF2378082B00D010BD88
:10071C000E4B00221A70FAE70D4C0022217810467D
:10072C00FFF736FF00220B4B19781046FFF730FF0E
:10073C002378032BEBD1054B01221A70024A137854
:10074C0001331370E3E770473100002020000020D4
:10075C00220000202300002008B52D4B1B78072B0E
:10076C002BD92C4B1B78012B28D00022114610467C
:10077C00FFF70EFF002201211046FFF709FF0022B0
:10078C0002211046FFF704FF002203211046FFF759
:10079C00FFFE002204211046FFF7FAFE002205217D
:1007AC001046FFF7F5FE002206211046FFF7F0FE7B
:1007BC00002207211046FFF7EBFE08BD01220021A5
:1007CC000846FFF7E5FE012211460020FFF7E0FE88
:1007DC00012202210020FFF7DBFE01220321002071
:1007EC00FFF7D6FE012204210020FFF7D1FE0122E3
:1007FC0005210020FFF7CCFE012206210020FFF787
:10080C00C7FE012207210020FFF7C2FED5E700BF7B
:10081C00310000202100002008B5FFF7FFFE022167
:10082C000846FFF705FFFFF729FFFFF72FFF002012
:10083C00FFF734FF1A48FFF743FF02220021084656
:10084C00FFF728FE022201210020FFF723FE0222DF
:10085C0011460020FFF71EFE022203210020FFF7A5
:10086C0019FE022204210020FFF714FE02220521AA
:10087C000020FFF70FFE022206210020FFF70AFEE0
:10088C00022207210020FFF705FE01220021084665
:10089C00FFF77EFEFFF722FFFFF75EFFFAE700BFD0
:1008AC00F049020010B5FFF711FF3E4B1B78032BEC
:1008BC003AD83D4B1978072905D9082911D03B485E
:1008CC00FFF7FEFE10BD00221046FFF761FE364B0F
:1008DC0019780131C9B2197001220020FFF758FEB6
:1008EC00EDE7334C002221781046FFF751FE2178BA
:1008FC000139C9B2217001220020FFF749FE23788B
:10090C0043B9294B00221A7007222270254A13780A
:10091C0001331370234B1B78042BD0D100221146CA
:10092C001046FFF735FECAE71A1FD2B2032A1FD8AA
:10093C00204B1B787BB1204A1378013313701F4A6C
:10094C001378013B1370174B1B78082B0CD01748EE
:10095C00FFF7B6FEB6E7184A1378013B1370174A37
:10096C00137801331370EEE71548FFF7A9FEA9E7DA
:10097C00072BA7D913490A7882F001020A70094C97
:10098C00013323700E48FFF79BFE2378102B99D16F
:10099C000020207001220146FFF7FAFD0348FFF703
:1009AC008FFE8FE73100002032000020F04902005A
:1009BC002400002020000020220000202300002022
:0809CC00D0DD0600210000202F
:1009D40078563412300000200000000000000000AF
:1009E40000000000010203040607080900A24A04EB
:0C09F4000101030407FFFFFF3254769856
:040000050800010DE1
:00000001FF
